{
	"FundMe/FundMe.sol": {
		"FundMe": {
			"abi": [
				{
					"inputs": [
						{
							"internalType": "address",
							"name": "funder",
							"type": "address"
						}
					],
					"name": "addressToAMountFunded",
					"outputs": [
						{
							"internalType": "uint256",
							"name": "amountFunded",
							"type": "uint256"
						}
					],
					"stateMutability": "view",
					"type": "function"
				},
				{
					"inputs": [],
					"name": "fund",
					"outputs": [],
					"stateMutability": "payable",
					"type": "function"
				},
				{
					"inputs": [
						{
							"internalType": "uint256",
							"name": "",
							"type": "uint256"
						}
					],
					"name": "funders",
					"outputs": [
						{
							"internalType": "address",
							"name": "",
							"type": "address"
						}
					],
					"stateMutability": "view",
					"type": "function"
				},
				{
					"inputs": [],
					"name": "minimumUsd",
					"outputs": [
						{
							"internalType": "uint256",
							"name": "",
							"type": "uint256"
						}
					],
					"stateMutability": "view",
					"type": "function"
				}
			],
			"devdoc": {
				"kind": "dev",
				"methods": {},
				"version": 1
			},
			"evm": {
				"assembly": "    /* \"FundMe/FundMe.sol\":116:624  contract FundMe{... */\n  mstore(0x40, 0x80)\n    /* \"FundMe/FundMe.sol\":207:221  5 * (10 ** 18) */\n  0x4563918244f40000\n    /* \"FundMe/FundMe.sol\":179:221  uint256 public minimumUsd = 5 * (10 ** 18) */\n  0x00\n  sstore\n    /* \"FundMe/FundMe.sol\":116:624  contract FundMe{... */\n  callvalue\n  dup1\n  iszero\n  tag_1\n  jumpi\n  0x00\n  dup1\n  revert\ntag_1:\n  pop\n  dataSize(sub_0)\n  dup1\n  dataOffset(sub_0)\n  0x00\n  codecopy\n  0x00\n  return\nstop\n\nsub_0: assembly {\n        /* \"FundMe/FundMe.sol\":116:624  contract FundMe{... */\n      mstore(0x40, 0x80)\n      jumpi(tag_1, lt(calldatasize, 0x04))\n      shr(0xe0, calldataload(0x00))\n      dup1\n      0x098de820\n      eq\n      tag_2\n      jumpi\n      dup1\n      0xb60d4288\n      eq\n      tag_3\n      jumpi\n      dup1\n      0xc1cc410d\n      eq\n      tag_4\n      jumpi\n      dup1\n      0xdc0d3dff\n      eq\n      tag_5\n      jumpi\n    tag_1:\n      0x00\n      dup1\n      revert\n        /* \"FundMe/FundMe.sol\":179:221  uint256 public minimumUsd = 5 * (10 ** 18) */\n    tag_2:\n      callvalue\n      dup1\n      iszero\n      tag_6\n      jumpi\n      0x00\n      dup1\n      revert\n    tag_6:\n      pop\n      tag_7\n      tag_8\n      jump\t// in\n    tag_7:\n      mload(0x40)\n      tag_9\n      swap2\n      swap1\n      tag_10\n      jump\t// in\n    tag_9:\n      mload(0x40)\n      dup1\n      swap2\n      sub\n      swap1\n      return\n        /* \"FundMe/FundMe.sol\":352:614  function fund() public payable {... */\n    tag_3:\n      tag_11\n      tag_12\n      jump\t// in\n    tag_11:\n      stop\n        /* \"FundMe/FundMe.sol\":261:337  mapping(address funder => uint256 amountFunded) public addressToAMountFunded */\n    tag_4:\n      callvalue\n      dup1\n      iszero\n      tag_13\n      jumpi\n      0x00\n      dup1\n      revert\n    tag_13:\n      pop\n      tag_14\n      0x04\n      dup1\n      calldatasize\n      sub\n      dup2\n      add\n      swap1\n      tag_15\n      swap2\n      swap1\n      tag_16\n      jump\t// in\n    tag_15:\n      tag_17\n      jump\t// in\n    tag_14:\n      mload(0x40)\n      tag_18\n      swap2\n      swap1\n      tag_10\n      jump\t// in\n    tag_18:\n      mload(0x40)\n      dup1\n      swap2\n      sub\n      swap1\n      return\n        /* \"FundMe/FundMe.sol\":230:254  address[] public funders */\n    tag_5:\n      callvalue\n      dup1\n      iszero\n      tag_19\n      jumpi\n      0x00\n      dup1\n      revert\n    tag_19:\n      pop\n      tag_20\n      0x04\n      dup1\n      calldatasize\n      sub\n      dup2\n      add\n      swap1\n      tag_21\n      swap2\n      swap1\n      tag_22\n      jump\t// in\n    tag_21:\n      tag_23\n      jump\t// in\n    tag_20:\n      mload(0x40)\n      tag_24\n      swap2\n      swap1\n      tag_25\n      jump\t// in\n    tag_24:\n      mload(0x40)\n      dup1\n      swap2\n      sub\n      swap1\n      return\n        /* \"FundMe/FundMe.sol\":179:221  uint256 public minimumUsd = 5 * (10 ** 18) */\n    tag_8:\n      sload(0x00)\n      dup2\n      jump\t// out\n        /* \"FundMe/FundMe.sol\":352:614  function fund() public payable {... */\n    tag_12:\n        /* \"FundMe/FundMe.sol\":434:444  minimumUsd */\n      sload(0x00)\n        /* \"FundMe/FundMe.sol\":402:431  msg.value.getConversionRate() */\n      tag_27\n        /* \"FundMe/FundMe.sol\":402:411  msg.value */\n      callvalue\n        /* \"FundMe/FundMe.sol\":402:429  msg.value.getConversionRate */\n      tag_28\n        /* \"FundMe/FundMe.sol\":402:431  msg.value.getConversionRate() */\n      jump\t// in\n    tag_27:\n        /* \"FundMe/FundMe.sol\":402:444  msg.value.getConversionRate() > minimumUsd */\n      gt\n        /* \"FundMe/FundMe.sol\":394:473  require(msg.value.getConversionRate() > minimumUsd, \"Didn't send enough funds\") */\n      tag_29\n      jumpi\n      mload(0x40)\n      0x08c379a000000000000000000000000000000000000000000000000000000000\n      dup2\n      mstore\n      0x04\n      add\n      tag_30\n      swap1\n      tag_31\n      jump\t// in\n    tag_30:\n      mload(0x40)\n      dup1\n      swap2\n      sub\n      swap1\n      revert\n    tag_29:\n        /* \"FundMe/FundMe.sol\":484:491  funders */\n      0x01\n        /* \"FundMe/FundMe.sol\":497:507  msg.sender */\n      caller\n        /* \"FundMe/FundMe.sol\":484:508  funders.push(msg.sender) */\n      swap1\n      dup1\n      0x01\n      dup2\n      sload\n      add\n      dup1\n      dup3\n      sstore\n      dup1\n      swap2\n      pop\n      pop\n      0x01\n      swap1\n      sub\n      swap1\n      0x00\n      mstore\n      keccak256(0x00, 0x20)\n      add\n      0x00\n      swap1\n      swap2\n      swap1\n      swap2\n      swap1\n      swap2\n      0x0100\n      exp\n      dup2\n      sload\n      dup2\n      0xffffffffffffffffffffffffffffffffffffffff\n      mul\n      not\n      and\n      swap1\n      dup4\n      0xffffffffffffffffffffffffffffffffffffffff\n      and\n      mul\n      or\n      swap1\n      sstore\n      pop\n        /* \"FundMe/FundMe.sol\":591:600  msg.value */\n      callvalue\n        /* \"FundMe/FundMe.sol\":555:576  addressToAMountFunded */\n      0x02\n        /* \"FundMe/FundMe.sol\":555:588  addressToAMountFunded[msg.sender] */\n      0x00\n        /* \"FundMe/FundMe.sol\":577:587  msg.sender */\n      caller\n        /* \"FundMe/FundMe.sol\":555:588  addressToAMountFunded[msg.sender] */\n      0xffffffffffffffffffffffffffffffffffffffff\n      and\n      0xffffffffffffffffffffffffffffffffffffffff\n      and\n      dup2\n      mstore\n      0x20\n      add\n      swap1\n      dup2\n      mstore\n      0x20\n      add\n      0x00\n      keccak256\n      sload\n        /* \"FundMe/FundMe.sol\":555:600  addressToAMountFunded[msg.sender] + msg.value */\n      tag_33\n      swap2\n      swap1\n      tag_34\n      jump\t// in\n    tag_33:\n        /* \"FundMe/FundMe.sol\":519:540  addressToAMountFunded */\n      0x02\n        /* \"FundMe/FundMe.sol\":519:552  addressToAMountFunded[msg.sender] */\n      0x00\n        /* \"FundMe/FundMe.sol\":541:551  msg.sender */\n      caller\n        /* \"FundMe/FundMe.sol\":519:552  addressToAMountFunded[msg.sender] */\n      0xffffffffffffffffffffffffffffffffffffffff\n      and\n      0xffffffffffffffffffffffffffffffffffffffff\n      and\n      dup2\n      mstore\n      0x20\n      add\n      swap1\n      dup2\n      mstore\n      0x20\n      add\n      0x00\n      keccak256\n        /* \"FundMe/FundMe.sol\":519:600  addressToAMountFunded[msg.sender] = addressToAMountFunded[msg.sender] + msg.value */\n      dup2\n      swap1\n      sstore\n      pop\n        /* \"FundMe/FundMe.sol\":352:614  function fund() public payable {... */\n      jump\t// out\n        /* \"FundMe/FundMe.sol\":261:337  mapping(address funder => uint256 amountFunded) public addressToAMountFunded */\n    tag_17:\n      mstore(0x20, 0x02)\n      dup1\n      0x00\n      mstore\n      keccak256(0x00, 0x40)\n      0x00\n      swap2\n      pop\n      swap1\n      pop\n      sload\n      dup2\n      jump\t// out\n        /* \"FundMe/FundMe.sol\":230:254  address[] public funders */\n    tag_23:\n      0x01\n      dup2\n      dup2\n      sload\n      dup2\n      lt\n      tag_35\n      jumpi\n      0x00\n      dup1\n      revert\n    tag_35:\n      swap1\n      0x00\n      mstore\n      keccak256(0x00, 0x20)\n      add\n      0x00\n      swap2\n      pop\n      sload\n      swap1\n      0x0100\n      exp\n      swap1\n      div\n      0xffffffffffffffffffffffffffffffffffffffff\n      and\n      dup2\n      jump\t// out\n        /* \"FundMe/PriceConverter.sol\":487:714  function getConversionRate(uint256 ethAmount) internal  view returns(uint256) {... */\n    tag_28:\n        /* \"FundMe/PriceConverter.sol\":556:563  uint256 */\n      0x00\n        /* \"FundMe/PriceConverter.sol\":576:592  uint256 ethPrice */\n      dup1\n        /* \"FundMe/PriceConverter.sol\":595:605  getPrice() */\n      tag_38\n        /* \"FundMe/PriceConverter.sol\":595:603  getPrice */\n      tag_39\n        /* \"FundMe/PriceConverter.sol\":595:605  getPrice() */\n      jump\t// in\n    tag_38:\n        /* \"FundMe/PriceConverter.sol\":576:605  uint256 ethPrice = getPrice() */\n      swap1\n      pop\n        /* \"FundMe/PriceConverter.sol\":616:638  uint256 ethAmountInUsd */\n      0x00\n        /* \"FundMe/PriceConverter.sol\":666:670  1e18 */\n      0x0de0b6b3a7640000\n        /* \"FundMe/PriceConverter.sol\":653:662  ethAmount */\n      dup5\n        /* \"FundMe/PriceConverter.sol\":642:650  ethPrice */\n      dup4\n        /* \"FundMe/PriceConverter.sol\":642:662  ethPrice * ethAmount */\n      tag_40\n      swap2\n      swap1\n      tag_41\n      jump\t// in\n    tag_40:\n        /* \"FundMe/PriceConverter.sol\":641:670  (ethPrice * ethAmount) / 1e18 */\n      tag_42\n      swap2\n      swap1\n      tag_43\n      jump\t// in\n    tag_42:\n        /* \"FundMe/PriceConverter.sol\":616:670  uint256 ethAmountInUsd = (ethPrice * ethAmount) / 1e18 */\n      swap1\n      pop\n        /* \"FundMe/PriceConverter.sol\":690:704  ethAmountInUsd */\n      dup1\n        /* \"FundMe/PriceConverter.sol\":683:704  return ethAmountInUsd */\n      swap3\n      pop\n      pop\n      pop\n        /* \"FundMe/PriceConverter.sol\":487:714  function getConversionRate(uint256 ethAmount) internal  view returns(uint256) {... */\n      swap2\n      swap1\n      pop\n      jump\t// out\n        /* \"FundMe/PriceConverter.sol\":206:479  function getPrice() internal view returns(uint256)  {... */\n    tag_39:\n        /* \"FundMe/PriceConverter.sol\":248:255  uint256 */\n      0x00\n        /* \"FundMe/PriceConverter.sol\":269:300  AggregatorV3Interface priceFeed */\n      dup1\n        /* \"FundMe/PriceConverter.sol\":325:367  0x694AA1769357215DE4FAC081bf1f309aDC325306 */\n      0x694aa1769357215de4fac081bf1f309adc325306\n        /* \"FundMe/PriceConverter.sol\":269:368  AggregatorV3Interface priceFeed = AggregatorV3Interface(0x694AA1769357215DE4FAC081bf1f309aDC325306) */\n      swap1\n      pop\n        /* \"FundMe/PriceConverter.sol\":382:394  int256 price */\n      0x00\n        /* \"FundMe/PriceConverter.sol\":401:410  priceFeed */\n      dup2\n        /* \"FundMe/PriceConverter.sol\":401:426  priceFeed.latestRoundData */\n      0xffffffffffffffffffffffffffffffffffffffff\n      and\n      0xfeaf968c\n        /* \"FundMe/PriceConverter.sol\":401:428  priceFeed.latestRoundData() */\n      mload(0x40)\n      dup2\n      0xffffffff\n      and\n      0xe0\n      shl\n      dup2\n      mstore\n      0x04\n      add\n      0xa0\n      mload(0x40)\n      dup1\n      dup4\n      sub\n      dup2\n      dup7\n      gas\n      staticcall\n      iszero\n      dup1\n      iszero\n      tag_46\n      jumpi\n      returndatasize\n      0x00\n      dup1\n      returndatacopy\n      revert(0x00, returndatasize)\n    tag_46:\n      pop\n      pop\n      pop\n      pop\n      mload(0x40)\n      returndatasize\n      not(0x1f)\n      0x1f\n      dup3\n      add\n      and\n      dup3\n      add\n      dup1\n      0x40\n      mstore\n      pop\n      dup2\n      add\n      swap1\n      tag_47\n      swap2\n      swap1\n      tag_48\n      jump\t// in\n    tag_47:\n        /* \"FundMe/PriceConverter.sol\":379:428  (, int256 price,,,) = priceFeed.latestRoundData() */\n      pop\n      pop\n      pop\n      swap2\n      pop\n      pop\n        /* \"FundMe/PriceConverter.sol\":464:468  1e18 */\n      0x0de0b6b3a7640000\n        /* \"FundMe/PriceConverter.sol\":456:461  price */\n      dup2\n        /* \"FundMe/PriceConverter.sol\":456:468  price * 1e18 */\n      tag_49\n      swap2\n      swap1\n      tag_50\n      jump\t// in\n    tag_49:\n        /* \"FundMe/PriceConverter.sol\":441:469  return uint256(price * 1e18) */\n      swap3\n      pop\n      pop\n      pop\n        /* \"FundMe/PriceConverter.sol\":206:479  function getPrice() internal view returns(uint256)  {... */\n      swap1\n      jump\t// out\n        /* \"#utility.yul\":7:84   */\n    tag_51:\n        /* \"#utility.yul\":44:51   */\n      0x00\n        /* \"#utility.yul\":73:78   */\n      dup2\n        /* \"#utility.yul\":62:78   */\n      swap1\n      pop\n        /* \"#utility.yul\":7:84   */\n      swap2\n      swap1\n      pop\n      jump\t// out\n        /* \"#utility.yul\":90:208   */\n    tag_52:\n        /* \"#utility.yul\":177:201   */\n      tag_78\n        /* \"#utility.yul\":195:200   */\n      dup2\n        /* \"#utility.yul\":177:201   */\n      tag_51\n      jump\t// in\n    tag_78:\n        /* \"#utility.yul\":172:175   */\n      dup3\n        /* \"#utility.yul\":165:202   */\n      mstore\n        /* \"#utility.yul\":90:208   */\n      pop\n      pop\n      jump\t// out\n        /* \"#utility.yul\":214:436   */\n    tag_10:\n        /* \"#utility.yul\":307:311   */\n      0x00\n        /* \"#utility.yul\":345:347   */\n      0x20\n        /* \"#utility.yul\":334:343   */\n      dup3\n        /* \"#utility.yul\":330:348   */\n      add\n        /* \"#utility.yul\":322:348   */\n      swap1\n      pop\n        /* \"#utility.yul\":358:429   */\n      tag_80\n        /* \"#utility.yul\":426:427   */\n      0x00\n        /* \"#utility.yul\":415:424   */\n      dup4\n        /* \"#utility.yul\":411:428   */\n      add\n        /* \"#utility.yul\":402:408   */\n      dup5\n        /* \"#utility.yul\":358:429   */\n      tag_52\n      jump\t// in\n    tag_80:\n        /* \"#utility.yul\":214:436   */\n      swap3\n      swap2\n      pop\n      pop\n      jump\t// out\n        /* \"#utility.yul\":523:640   */\n    tag_54:\n        /* \"#utility.yul\":632:633   */\n      0x00\n        /* \"#utility.yul\":629:630   */\n      dup1\n        /* \"#utility.yul\":622:634   */\n      revert\n        /* \"#utility.yul\":769:895   */\n    tag_56:\n        /* \"#utility.yul\":806:813   */\n      0x00\n        /* \"#utility.yul\":846:888   */\n      0xffffffffffffffffffffffffffffffffffffffff\n        /* \"#utility.yul\":839:844   */\n      dup3\n        /* \"#utility.yul\":835:889   */\n      and\n        /* \"#utility.yul\":824:889   */\n      swap1\n      pop\n        /* \"#utility.yul\":769:895   */\n      swap2\n      swap1\n      pop\n      jump\t// out\n        /* \"#utility.yul\":901:997   */\n    tag_57:\n        /* \"#utility.yul\":938:945   */\n      0x00\n        /* \"#utility.yul\":967:991   */\n      tag_86\n        /* \"#utility.yul\":985:990   */\n      dup3\n        /* \"#utility.yul\":967:991   */\n      tag_56\n      jump\t// in\n    tag_86:\n        /* \"#utility.yul\":956:991   */\n      swap1\n      pop\n        /* \"#utility.yul\":901:997   */\n      swap2\n      swap1\n      pop\n      jump\t// out\n        /* \"#utility.yul\":1003:1125   */\n    tag_58:\n        /* \"#utility.yul\":1076:1100   */\n      tag_88\n        /* \"#utility.yul\":1094:1099   */\n      dup2\n        /* \"#utility.yul\":1076:1100   */\n      tag_57\n      jump\t// in\n    tag_88:\n        /* \"#utility.yul\":1069:1074   */\n      dup2\n        /* \"#utility.yul\":1066:1101   */\n      eq\n        /* \"#utility.yul\":1056:1119   */\n      tag_89\n      jumpi\n        /* \"#utility.yul\":1115:1116   */\n      0x00\n        /* \"#utility.yul\":1112:1113   */\n      dup1\n        /* \"#utility.yul\":1105:1117   */\n      revert\n        /* \"#utility.yul\":1056:1119   */\n    tag_89:\n        /* \"#utility.yul\":1003:1125   */\n      pop\n      jump\t// out\n        /* \"#utility.yul\":1131:1270   */\n    tag_59:\n        /* \"#utility.yul\":1177:1182   */\n      0x00\n        /* \"#utility.yul\":1215:1221   */\n      dup2\n        /* \"#utility.yul\":1202:1222   */\n      calldataload\n        /* \"#utility.yul\":1193:1222   */\n      swap1\n      pop\n        /* \"#utility.yul\":1231:1264   */\n      tag_91\n        /* \"#utility.yul\":1258:1263   */\n      dup2\n        /* \"#utility.yul\":1231:1264   */\n      tag_58\n      jump\t// in\n    tag_91:\n        /* \"#utility.yul\":1131:1270   */\n      swap3\n      swap2\n      pop\n      pop\n      jump\t// out\n        /* \"#utility.yul\":1276:1605   */\n    tag_16:\n        /* \"#utility.yul\":1335:1341   */\n      0x00\n        /* \"#utility.yul\":1384:1386   */\n      0x20\n        /* \"#utility.yul\":1372:1381   */\n      dup3\n        /* \"#utility.yul\":1363:1370   */\n      dup5\n        /* \"#utility.yul\":1359:1382   */\n      sub\n        /* \"#utility.yul\":1355:1387   */\n      slt\n        /* \"#utility.yul\":1352:1471   */\n      iszero\n      tag_93\n      jumpi\n        /* \"#utility.yul\":1390:1469   */\n      tag_94\n      tag_54\n      jump\t// in\n    tag_94:\n        /* \"#utility.yul\":1352:1471   */\n    tag_93:\n        /* \"#utility.yul\":1510:1511   */\n      0x00\n        /* \"#utility.yul\":1535:1588   */\n      tag_95\n        /* \"#utility.yul\":1580:1587   */\n      dup5\n        /* \"#utility.yul\":1571:1577   */\n      dup3\n        /* \"#utility.yul\":1560:1569   */\n      dup6\n        /* \"#utility.yul\":1556:1578   */\n      add\n        /* \"#utility.yul\":1535:1588   */\n      tag_59\n      jump\t// in\n    tag_95:\n        /* \"#utility.yul\":1525:1588   */\n      swap2\n      pop\n        /* \"#utility.yul\":1481:1598   */\n      pop\n        /* \"#utility.yul\":1276:1605   */\n      swap3\n      swap2\n      pop\n      pop\n      jump\t// out\n        /* \"#utility.yul\":1611:1733   */\n    tag_60:\n        /* \"#utility.yul\":1684:1708   */\n      tag_97\n        /* \"#utility.yul\":1702:1707   */\n      dup2\n        /* \"#utility.yul\":1684:1708   */\n      tag_51\n      jump\t// in\n    tag_97:\n        /* \"#utility.yul\":1677:1682   */\n      dup2\n        /* \"#utility.yul\":1674:1709   */\n      eq\n        /* \"#utility.yul\":1664:1727   */\n      tag_98\n      jumpi\n        /* \"#utility.yul\":1723:1724   */\n      0x00\n        /* \"#utility.yul\":1720:1721   */\n      dup1\n        /* \"#utility.yul\":1713:1725   */\n      revert\n        /* \"#utility.yul\":1664:1727   */\n    tag_98:\n        /* \"#utility.yul\":1611:1733   */\n      pop\n      jump\t// out\n        /* \"#utility.yul\":1739:1878   */\n    tag_61:\n        /* \"#utility.yul\":1785:1790   */\n      0x00\n        /* \"#utility.yul\":1823:1829   */\n      dup2\n        /* \"#utility.yul\":1810:1830   */\n      calldataload\n        /* \"#utility.yul\":1801:1830   */\n      swap1\n      pop\n        /* \"#utility.yul\":1839:1872   */\n      tag_100\n        /* \"#utility.yul\":1866:1871   */\n      dup2\n        /* \"#utility.yul\":1839:1872   */\n      tag_60\n      jump\t// in\n    tag_100:\n        /* \"#utility.yul\":1739:1878   */\n      swap3\n      swap2\n      pop\n      pop\n      jump\t// out\n        /* \"#utility.yul\":1884:2213   */\n    tag_22:\n        /* \"#utility.yul\":1943:1949   */\n      0x00\n        /* \"#utility.yul\":1992:1994   */\n      0x20\n        /* \"#utility.yul\":1980:1989   */\n      dup3\n        /* \"#utility.yul\":1971:1978   */\n      dup5\n        /* \"#utility.yul\":1967:1990   */\n      sub\n        /* \"#utility.yul\":1963:1995   */\n      slt\n        /* \"#utility.yul\":1960:2079   */\n      iszero\n      tag_102\n      jumpi\n        /* \"#utility.yul\":1998:2077   */\n      tag_103\n      tag_54\n      jump\t// in\n    tag_103:\n        /* \"#utility.yul\":1960:2079   */\n    tag_102:\n        /* \"#utility.yul\":2118:2119   */\n      0x00\n        /* \"#utility.yul\":2143:2196   */\n      tag_104\n        /* \"#utility.yul\":2188:2195   */\n      dup5\n        /* \"#utility.yul\":2179:2185   */\n      dup3\n        /* \"#utility.yul\":2168:2177   */\n      dup6\n        /* \"#utility.yul\":2164:2186   */\n      add\n        /* \"#utility.yul\":2143:2196   */\n      tag_61\n      jump\t// in\n    tag_104:\n        /* \"#utility.yul\":2133:2196   */\n      swap2\n      pop\n        /* \"#utility.yul\":2089:2206   */\n      pop\n        /* \"#utility.yul\":1884:2213   */\n      swap3\n      swap2\n      pop\n      pop\n      jump\t// out\n        /* \"#utility.yul\":2219:2337   */\n    tag_62:\n        /* \"#utility.yul\":2306:2330   */\n      tag_106\n        /* \"#utility.yul\":2324:2329   */\n      dup2\n        /* \"#utility.yul\":2306:2330   */\n      tag_57\n      jump\t// in\n    tag_106:\n        /* \"#utility.yul\":2301:2304   */\n      dup3\n        /* \"#utility.yul\":2294:2331   */\n      mstore\n        /* \"#utility.yul\":2219:2337   */\n      pop\n      pop\n      jump\t// out\n        /* \"#utility.yul\":2343:2565   */\n    tag_25:\n        /* \"#utility.yul\":2436:2440   */\n      0x00\n        /* \"#utility.yul\":2474:2476   */\n      0x20\n        /* \"#utility.yul\":2463:2472   */\n      dup3\n        /* \"#utility.yul\":2459:2477   */\n      add\n        /* \"#utility.yul\":2451:2477   */\n      swap1\n      pop\n        /* \"#utility.yul\":2487:2558   */\n      tag_108\n        /* \"#utility.yul\":2555:2556   */\n      0x00\n        /* \"#utility.yul\":2544:2553   */\n      dup4\n        /* \"#utility.yul\":2540:2557   */\n      add\n        /* \"#utility.yul\":2531:2537   */\n      dup5\n        /* \"#utility.yul\":2487:2558   */\n      tag_62\n      jump\t// in\n    tag_108:\n        /* \"#utility.yul\":2343:2565   */\n      swap3\n      swap2\n      pop\n      pop\n      jump\t// out\n        /* \"#utility.yul\":2571:2740   */\n    tag_63:\n        /* \"#utility.yul\":2655:2666   */\n      0x00\n        /* \"#utility.yul\":2689:2695   */\n      dup3\n        /* \"#utility.yul\":2684:2687   */\n      dup3\n        /* \"#utility.yul\":2677:2696   */\n      mstore\n        /* \"#utility.yul\":2729:2733   */\n      0x20\n        /* \"#utility.yul\":2724:2727   */\n      dup3\n        /* \"#utility.yul\":2720:2734   */\n      add\n        /* \"#utility.yul\":2705:2734   */\n      swap1\n      pop\n        /* \"#utility.yul\":2571:2740   */\n      swap3\n      swap2\n      pop\n      pop\n      jump\t// out\n        /* \"#utility.yul\":2746:2920   */\n    tag_64:\n        /* \"#utility.yul\":2886:2912   */\n      0x4469646e27742073656e6420656e6f7567682066756e64730000000000000000\n        /* \"#utility.yul\":2882:2883   */\n      0x00\n        /* \"#utility.yul\":2874:2880   */\n      dup3\n        /* \"#utility.yul\":2870:2884   */\n      add\n        /* \"#utility.yul\":2863:2913   */\n      mstore\n        /* \"#utility.yul\":2746:2920   */\n      pop\n      jump\t// out\n        /* \"#utility.yul\":2926:3292   */\n    tag_65:\n        /* \"#utility.yul\":3068:3071   */\n      0x00\n        /* \"#utility.yul\":3089:3156   */\n      tag_112\n        /* \"#utility.yul\":3153:3155   */\n      0x18\n        /* \"#utility.yul\":3148:3151   */\n      dup4\n        /* \"#utility.yul\":3089:3156   */\n      tag_63\n      jump\t// in\n    tag_112:\n        /* \"#utility.yul\":3082:3156   */\n      swap2\n      pop\n        /* \"#utility.yul\":3165:3258   */\n      tag_113\n        /* \"#utility.yul\":3254:3257   */\n      dup3\n        /* \"#utility.yul\":3165:3258   */\n      tag_64\n      jump\t// in\n    tag_113:\n        /* \"#utility.yul\":3283:3285   */\n      0x20\n        /* \"#utility.yul\":3278:3281   */\n      dup3\n        /* \"#utility.yul\":3274:3286   */\n      add\n        /* \"#utility.yul\":3267:3286   */\n      swap1\n      pop\n        /* \"#utility.yul\":2926:3292   */\n      swap2\n      swap1\n      pop\n      jump\t// out\n        /* \"#utility.yul\":3298:3717   */\n    tag_31:\n        /* \"#utility.yul\":3464:3468   */\n      0x00\n        /* \"#utility.yul\":3502:3504   */\n      0x20\n        /* \"#utility.yul\":3491:3500   */\n      dup3\n        /* \"#utility.yul\":3487:3505   */\n      add\n        /* \"#utility.yul\":3479:3505   */\n      swap1\n      pop\n        /* \"#utility.yul\":3551:3560   */\n      dup2\n        /* \"#utility.yul\":3545:3549   */\n      dup2\n        /* \"#utility.yul\":3541:3561   */\n      sub\n        /* \"#utility.yul\":3537:3538   */\n      0x00\n        /* \"#utility.yul\":3526:3535   */\n      dup4\n        /* \"#utility.yul\":3522:3539   */\n      add\n        /* \"#utility.yul\":3515:3562   */\n      mstore\n        /* \"#utility.yul\":3579:3710   */\n      tag_115\n        /* \"#utility.yul\":3705:3709   */\n      dup2\n        /* \"#utility.yul\":3579:3710   */\n      tag_65\n      jump\t// in\n    tag_115:\n        /* \"#utility.yul\":3571:3710   */\n      swap1\n      pop\n        /* \"#utility.yul\":3298:3717   */\n      swap2\n      swap1\n      pop\n      jump\t// out\n        /* \"#utility.yul\":3723:3903   */\n    tag_66:\n        /* \"#utility.yul\":3771:3848   */\n      0x4e487b7100000000000000000000000000000000000000000000000000000000\n        /* \"#utility.yul\":3768:3769   */\n      0x00\n        /* \"#utility.yul\":3761:3849   */\n      mstore\n        /* \"#utility.yul\":3868:3872   */\n      0x11\n        /* \"#utility.yul\":3865:3866   */\n      0x04\n        /* \"#utility.yul\":3858:3873   */\n      mstore\n        /* \"#utility.yul\":3892:3896   */\n      0x24\n        /* \"#utility.yul\":3889:3890   */\n      0x00\n        /* \"#utility.yul\":3882:3897   */\n      revert\n        /* \"#utility.yul\":3909:4100   */\n    tag_34:\n        /* \"#utility.yul\":3949:3952   */\n      0x00\n        /* \"#utility.yul\":3968:3988   */\n      tag_118\n        /* \"#utility.yul\":3986:3987   */\n      dup3\n        /* \"#utility.yul\":3968:3988   */\n      tag_51\n      jump\t// in\n    tag_118:\n        /* \"#utility.yul\":3963:3988   */\n      swap2\n      pop\n        /* \"#utility.yul\":4002:4022   */\n      tag_119\n        /* \"#utility.yul\":4020:4021   */\n      dup4\n        /* \"#utility.yul\":4002:4022   */\n      tag_51\n      jump\t// in\n    tag_119:\n        /* \"#utility.yul\":3997:4022   */\n      swap3\n      pop\n        /* \"#utility.yul\":4045:4046   */\n      dup3\n        /* \"#utility.yul\":4042:4043   */\n      dup3\n        /* \"#utility.yul\":4038:4047   */\n      add\n        /* \"#utility.yul\":4031:4047   */\n      swap1\n      pop\n        /* \"#utility.yul\":4066:4069   */\n      dup1\n        /* \"#utility.yul\":4063:4064   */\n      dup3\n        /* \"#utility.yul\":4060:4070   */\n      gt\n        /* \"#utility.yul\":4057:4093   */\n      iszero\n      tag_120\n      jumpi\n        /* \"#utility.yul\":4073:4091   */\n      tag_121\n      tag_66\n      jump\t// in\n    tag_121:\n        /* \"#utility.yul\":4057:4093   */\n    tag_120:\n        /* \"#utility.yul\":3909:4100   */\n      swap3\n      swap2\n      pop\n      pop\n      jump\t// out\n        /* \"#utility.yul\":4106:4516   */\n    tag_41:\n        /* \"#utility.yul\":4146:4153   */\n      0x00\n        /* \"#utility.yul\":4169:4189   */\n      tag_123\n        /* \"#utility.yul\":4187:4188   */\n      dup3\n        /* \"#utility.yul\":4169:4189   */\n      tag_51\n      jump\t// in\n    tag_123:\n        /* \"#utility.yul\":4164:4189   */\n      swap2\n      pop\n        /* \"#utility.yul\":4203:4223   */\n      tag_124\n        /* \"#utility.yul\":4221:4222   */\n      dup4\n        /* \"#utility.yul\":4203:4223   */\n      tag_51\n      jump\t// in\n    tag_124:\n        /* \"#utility.yul\":4198:4223   */\n      swap3\n      pop\n        /* \"#utility.yul\":4258:4259   */\n      dup3\n        /* \"#utility.yul\":4255:4256   */\n      dup3\n        /* \"#utility.yul\":4251:4260   */\n      mul\n        /* \"#utility.yul\":4280:4310   */\n      tag_125\n        /* \"#utility.yul\":4298:4309   */\n      dup2\n        /* \"#utility.yul\":4280:4310   */\n      tag_51\n      jump\t// in\n    tag_125:\n        /* \"#utility.yul\":4269:4310   */\n      swap2\n      pop\n        /* \"#utility.yul\":4459:4460   */\n      dup3\n        /* \"#utility.yul\":4450:4457   */\n      dup3\n        /* \"#utility.yul\":4446:4461   */\n      div\n        /* \"#utility.yul\":4443:4444   */\n      dup5\n        /* \"#utility.yul\":4440:4462   */\n      eq\n        /* \"#utility.yul\":4420:4421   */\n      dup4\n        /* \"#utility.yul\":4413:4422   */\n      iszero\n        /* \"#utility.yul\":4393:4476   */\n      or\n        /* \"#utility.yul\":4370:4509   */\n      tag_126\n      jumpi\n        /* \"#utility.yul\":4489:4507   */\n      tag_127\n      tag_66\n      jump\t// in\n    tag_127:\n        /* \"#utility.yul\":4370:4509   */\n    tag_126:\n        /* \"#utility.yul\":4154:4516   */\n      pop\n        /* \"#utility.yul\":4106:4516   */\n      swap3\n      swap2\n      pop\n      pop\n      jump\t// out\n        /* \"#utility.yul\":4522:4702   */\n    tag_67:\n        /* \"#utility.yul\":4570:4647   */\n      0x4e487b7100000000000000000000000000000000000000000000000000000000\n        /* \"#utility.yul\":4567:4568   */\n      0x00\n        /* \"#utility.yul\":4560:4648   */\n      mstore\n        /* \"#utility.yul\":4667:4671   */\n      0x12\n        /* \"#utility.yul\":4664:4665   */\n      0x04\n        /* \"#utility.yul\":4657:4672   */\n      mstore\n        /* \"#utility.yul\":4691:4695   */\n      0x24\n        /* \"#utility.yul\":4688:4689   */\n      0x00\n        /* \"#utility.yul\":4681:4696   */\n      revert\n        /* \"#utility.yul\":4708:4893   */\n    tag_43:\n        /* \"#utility.yul\":4748:4749   */\n      0x00\n        /* \"#utility.yul\":4765:4785   */\n      tag_130\n        /* \"#utility.yul\":4783:4784   */\n      dup3\n        /* \"#utility.yul\":4765:4785   */\n      tag_51\n      jump\t// in\n    tag_130:\n        /* \"#utility.yul\":4760:4785   */\n      swap2\n      pop\n        /* \"#utility.yul\":4799:4819   */\n      tag_131\n        /* \"#utility.yul\":4817:4818   */\n      dup4\n        /* \"#utility.yul\":4799:4819   */\n      tag_51\n      jump\t// in\n    tag_131:\n        /* \"#utility.yul\":4794:4819   */\n      swap3\n      pop\n        /* \"#utility.yul\":4838:4839   */\n      dup3\n        /* \"#utility.yul\":4828:4863   */\n      tag_132\n      jumpi\n        /* \"#utility.yul\":4843:4861   */\n      tag_133\n      tag_67\n      jump\t// in\n    tag_133:\n        /* \"#utility.yul\":4828:4863   */\n    tag_132:\n        /* \"#utility.yul\":4885:4886   */\n      dup3\n        /* \"#utility.yul\":4882:4883   */\n      dup3\n        /* \"#utility.yul\":4878:4887   */\n      div\n        /* \"#utility.yul\":4873:4887   */\n      swap1\n      pop\n        /* \"#utility.yul\":4708:4893   */\n      swap3\n      swap2\n      pop\n      pop\n      jump\t// out\n        /* \"#utility.yul\":4899:5004   */\n    tag_68:\n        /* \"#utility.yul\":4935:4942   */\n      0x00\n        /* \"#utility.yul\":4975:4997   */\n      0xffffffffffffffffffff\n        /* \"#utility.yul\":4968:4973   */\n      dup3\n        /* \"#utility.yul\":4964:4998   */\n      and\n        /* \"#utility.yul\":4953:4998   */\n      swap1\n      pop\n        /* \"#utility.yul\":4899:5004   */\n      swap2\n      swap1\n      pop\n      jump\t// out\n        /* \"#utility.yul\":5010:5130   */\n    tag_69:\n        /* \"#utility.yul\":5082:5105   */\n      tag_136\n        /* \"#utility.yul\":5099:5104   */\n      dup2\n        /* \"#utility.yul\":5082:5105   */\n      tag_68\n      jump\t// in\n    tag_136:\n        /* \"#utility.yul\":5075:5080   */\n      dup2\n        /* \"#utility.yul\":5072:5106   */\n      eq\n        /* \"#utility.yul\":5062:5124   */\n      tag_137\n      jumpi\n        /* \"#utility.yul\":5120:5121   */\n      0x00\n        /* \"#utility.yul\":5117:5118   */\n      dup1\n        /* \"#utility.yul\":5110:5122   */\n      revert\n        /* \"#utility.yul\":5062:5124   */\n    tag_137:\n        /* \"#utility.yul\":5010:5130   */\n      pop\n      jump\t// out\n        /* \"#utility.yul\":5136:5277   */\n    tag_70:\n        /* \"#utility.yul\":5192:5197   */\n      0x00\n        /* \"#utility.yul\":5223:5229   */\n      dup2\n        /* \"#utility.yul\":5217:5230   */\n      mload\n        /* \"#utility.yul\":5208:5230   */\n      swap1\n      pop\n        /* \"#utility.yul\":5239:5271   */\n      tag_139\n        /* \"#utility.yul\":5265:5270   */\n      dup2\n        /* \"#utility.yul\":5239:5271   */\n      tag_69\n      jump\t// in\n    tag_139:\n        /* \"#utility.yul\":5136:5277   */\n      swap3\n      swap2\n      pop\n      pop\n      jump\t// out\n        /* \"#utility.yul\":5283:5359   */\n    tag_71:\n        /* \"#utility.yul\":5319:5326   */\n      0x00\n        /* \"#utility.yul\":5348:5353   */\n      dup2\n        /* \"#utility.yul\":5337:5353   */\n      swap1\n      pop\n        /* \"#utility.yul\":5283:5359   */\n      swap2\n      swap1\n      pop\n      jump\t// out\n        /* \"#utility.yul\":5365:5485   */\n    tag_72:\n        /* \"#utility.yul\":5437:5460   */\n      tag_142\n        /* \"#utility.yul\":5454:5459   */\n      dup2\n        /* \"#utility.yul\":5437:5460   */\n      tag_71\n      jump\t// in\n    tag_142:\n        /* \"#utility.yul\":5430:5435   */\n      dup2\n        /* \"#utility.yul\":5427:5461   */\n      eq\n        /* \"#utility.yul\":5417:5479   */\n      tag_143\n      jumpi\n        /* \"#utility.yul\":5475:5476   */\n      0x00\n        /* \"#utility.yul\":5472:5473   */\n      dup1\n        /* \"#utility.yul\":5465:5477   */\n      revert\n        /* \"#utility.yul\":5417:5479   */\n    tag_143:\n        /* \"#utility.yul\":5365:5485   */\n      pop\n      jump\t// out\n        /* \"#utility.yul\":5491:5632   */\n    tag_73:\n        /* \"#utility.yul\":5547:5552   */\n      0x00\n        /* \"#utility.yul\":5578:5584   */\n      dup2\n        /* \"#utility.yul\":5572:5585   */\n      mload\n        /* \"#utility.yul\":5563:5585   */\n      swap1\n      pop\n        /* \"#utility.yul\":5594:5626   */\n      tag_145\n        /* \"#utility.yul\":5620:5625   */\n      dup2\n        /* \"#utility.yul\":5594:5626   */\n      tag_72\n      jump\t// in\n    tag_145:\n        /* \"#utility.yul\":5491:5632   */\n      swap3\n      swap2\n      pop\n      pop\n      jump\t// out\n        /* \"#utility.yul\":5638:5781   */\n    tag_74:\n        /* \"#utility.yul\":5695:5700   */\n      0x00\n        /* \"#utility.yul\":5726:5732   */\n      dup2\n        /* \"#utility.yul\":5720:5733   */\n      mload\n        /* \"#utility.yul\":5711:5733   */\n      swap1\n      pop\n        /* \"#utility.yul\":5742:5775   */\n      tag_147\n        /* \"#utility.yul\":5769:5774   */\n      dup2\n        /* \"#utility.yul\":5742:5775   */\n      tag_60\n      jump\t// in\n    tag_147:\n        /* \"#utility.yul\":5638:5781   */\n      swap3\n      swap2\n      pop\n      pop\n      jump\t// out\n        /* \"#utility.yul\":5787:6758   */\n    tag_48:\n        /* \"#utility.yul\":5890:5896   */\n      0x00\n        /* \"#utility.yul\":5898:5904   */\n      dup1\n        /* \"#utility.yul\":5906:5912   */\n      0x00\n        /* \"#utility.yul\":5914:5920   */\n      dup1\n        /* \"#utility.yul\":5922:5928   */\n      0x00\n        /* \"#utility.yul\":5971:5974   */\n      0xa0\n        /* \"#utility.yul\":5959:5968   */\n      dup7\n        /* \"#utility.yul\":5950:5957   */\n      dup9\n        /* \"#utility.yul\":5946:5969   */\n      sub\n        /* \"#utility.yul\":5942:5975   */\n      slt\n        /* \"#utility.yul\":5939:6059   */\n      iszero\n      tag_149\n      jumpi\n        /* \"#utility.yul\":5978:6057   */\n      tag_150\n      tag_54\n      jump\t// in\n    tag_150:\n        /* \"#utility.yul\":5939:6059   */\n    tag_149:\n        /* \"#utility.yul\":6098:6099   */\n      0x00\n        /* \"#utility.yul\":6123:6186   */\n      tag_151\n        /* \"#utility.yul\":6178:6185   */\n      dup9\n        /* \"#utility.yul\":6169:6175   */\n      dup3\n        /* \"#utility.yul\":6158:6167   */\n      dup10\n        /* \"#utility.yul\":6154:6176   */\n      add\n        /* \"#utility.yul\":6123:6186   */\n      tag_70\n      jump\t// in\n    tag_151:\n        /* \"#utility.yul\":6113:6186   */\n      swap6\n      pop\n        /* \"#utility.yul\":6069:6196   */\n      pop\n        /* \"#utility.yul\":6235:6237   */\n      0x20\n        /* \"#utility.yul\":6261:6324   */\n      tag_152\n        /* \"#utility.yul\":6316:6323   */\n      dup9\n        /* \"#utility.yul\":6307:6313   */\n      dup3\n        /* \"#utility.yul\":6296:6305   */\n      dup10\n        /* \"#utility.yul\":6292:6314   */\n      add\n        /* \"#utility.yul\":6261:6324   */\n      tag_73\n      jump\t// in\n    tag_152:\n        /* \"#utility.yul\":6251:6324   */\n      swap5\n      pop\n        /* \"#utility.yul\":6206:6334   */\n      pop\n        /* \"#utility.yul\":6373:6375   */\n      0x40\n        /* \"#utility.yul\":6399:6463   */\n      tag_153\n        /* \"#utility.yul\":6455:6462   */\n      dup9\n        /* \"#utility.yul\":6446:6452   */\n      dup3\n        /* \"#utility.yul\":6435:6444   */\n      dup10\n        /* \"#utility.yul\":6431:6453   */\n      add\n        /* \"#utility.yul\":6399:6463   */\n      tag_74\n      jump\t// in\n    tag_153:\n        /* \"#utility.yul\":6389:6463   */\n      swap4\n      pop\n        /* \"#utility.yul\":6344:6473   */\n      pop\n        /* \"#utility.yul\":6512:6514   */\n      0x60\n        /* \"#utility.yul\":6538:6602   */\n      tag_154\n        /* \"#utility.yul\":6594:6601   */\n      dup9\n        /* \"#utility.yul\":6585:6591   */\n      dup3\n        /* \"#utility.yul\":6574:6583   */\n      dup10\n        /* \"#utility.yul\":6570:6592   */\n      add\n        /* \"#utility.yul\":6538:6602   */\n      tag_74\n      jump\t// in\n    tag_154:\n        /* \"#utility.yul\":6528:6602   */\n      swap3\n      pop\n        /* \"#utility.yul\":6483:6612   */\n      pop\n        /* \"#utility.yul\":6651:6654   */\n      0x80\n        /* \"#utility.yul\":6678:6741   */\n      tag_155\n        /* \"#utility.yul\":6733:6740   */\n      dup9\n        /* \"#utility.yul\":6724:6730   */\n      dup3\n        /* \"#utility.yul\":6713:6722   */\n      dup10\n        /* \"#utility.yul\":6709:6731   */\n      add\n        /* \"#utility.yul\":6678:6741   */\n      tag_70\n      jump\t// in\n    tag_155:\n        /* \"#utility.yul\":6668:6741   */\n      swap2\n      pop\n        /* \"#utility.yul\":6622:6751   */\n      pop\n        /* \"#utility.yul\":5787:6758   */\n      swap3\n      swap6\n      pop\n      swap3\n      swap6\n      swap1\n      swap4\n      pop\n      jump\t// out\n        /* \"#utility.yul\":6764:7320   */\n    tag_50:\n        /* \"#utility.yul\":6803:6810   */\n      0x00\n        /* \"#utility.yul\":6826:6845   */\n      tag_157\n        /* \"#utility.yul\":6843:6844   */\n      dup3\n        /* \"#utility.yul\":6826:6845   */\n      tag_71\n      jump\t// in\n    tag_157:\n        /* \"#utility.yul\":6821:6845   */\n      swap2\n      pop\n        /* \"#utility.yul\":6859:6878   */\n      tag_158\n        /* \"#utility.yul\":6876:6877   */\n      dup4\n        /* \"#utility.yul\":6859:6878   */\n      tag_71\n      jump\t// in\n    tag_158:\n        /* \"#utility.yul\":6854:6878   */\n      swap3\n      pop\n        /* \"#utility.yul\":6913:6914   */\n      dup3\n        /* \"#utility.yul\":6910:6911   */\n      dup3\n        /* \"#utility.yul\":6906:6915   */\n      mul\n        /* \"#utility.yul\":6935:6964   */\n      tag_159\n        /* \"#utility.yul\":6952:6963   */\n      dup2\n        /* \"#utility.yul\":6935:6964   */\n      tag_71\n      jump\t// in\n    tag_159:\n        /* \"#utility.yul\":6924:6964   */\n      swap2\n      pop\n        /* \"#utility.yul\":7022:7088   */\n      0x8000000000000000000000000000000000000000000000000000000000000000\n        /* \"#utility.yul\":7019:7020   */\n      dup5\n        /* \"#utility.yul\":7016:7089   */\n      eq\n        /* \"#utility.yul\":7012:7013   */\n      0x00\n        /* \"#utility.yul\":7009:7010   */\n      dup5\n        /* \"#utility.yul\":7005:7014   */\n      slt\n        /* \"#utility.yul\":7001:7090   */\n      and\n        /* \"#utility.yul\":6998:7113   */\n      iszero\n      tag_160\n      jumpi\n        /* \"#utility.yul\":7093:7111   */\n      tag_161\n      tag_66\n      jump\t// in\n    tag_161:\n        /* \"#utility.yul\":6998:7113   */\n    tag_160:\n        /* \"#utility.yul\":7263:7264   */\n      dup3\n        /* \"#utility.yul\":7254:7261   */\n      dup3\n        /* \"#utility.yul\":7249:7265   */\n      sdiv\n        /* \"#utility.yul\":7246:7247   */\n      dup5\n        /* \"#utility.yul\":7243:7266   */\n      eq\n        /* \"#utility.yul\":7223:7224   */\n      dup4\n        /* \"#utility.yul\":7216:7225   */\n      iszero\n        /* \"#utility.yul\":7196:7280   */\n      or\n        /* \"#utility.yul\":7173:7313   */\n      tag_162\n      jumpi\n        /* \"#utility.yul\":7293:7311   */\n      tag_163\n      tag_66\n      jump\t// in\n    tag_163:\n        /* \"#utility.yul\":7173:7313   */\n    tag_162:\n        /* \"#utility.yul\":6811:7320   */\n      pop\n        /* \"#utility.yul\":6764:7320   */\n      swap3\n      swap2\n      pop\n      pop\n      jump\t// out\n\n    auxdata: 0xa2646970667358221220de0fb9d5c94c9200efbd53f0769a0b547fe9414e523d1fff48338627a524999d64736f6c63430008120033\n}\n",
				"bytecode": {
					"linkReferences": {},
					"object": "6080604052674563918244f4000060005534801561001c57600080fd5b506107f48061002c6000396000f3fe60806040526004361061003f5760003560e01c8063098de82014610044578063b60d42881461006f578063c1cc410d14610079578063dc0d3dff146100b6575b600080fd5b34801561005057600080fd5b506100596100f3565b604051610066919061038e565b60405180910390f35b6100776100f9565b005b34801561008557600080fd5b506100a0600480360381019061009b919061040c565b610238565b6040516100ad919061038e565b60405180910390f35b3480156100c257600080fd5b506100dd60048036038101906100d89190610465565b610250565b6040516100ea91906104a1565b60405180910390f35b60005481565b6000546101053461028f565b11610145576040517f08c379a000000000000000000000000000000000000000000000000000000000815260040161013c90610519565b60405180910390fd5b6001339080600181540180825580915050600190039060005260206000200160009091909190916101000a81548173ffffffffffffffffffffffffffffffffffffffff021916908373ffffffffffffffffffffffffffffffffffffffff16021790555034600260003373ffffffffffffffffffffffffffffffffffffffff1673ffffffffffffffffffffffffffffffffffffffff168152602001908152602001600020546101f39190610568565b600260003373ffffffffffffffffffffffffffffffffffffffff1673ffffffffffffffffffffffffffffffffffffffff16815260200190815260200160002081905550565b60026020528060005260406000206000915090505481565b6001818154811061026057600080fd5b906000526020600020016000915054906101000a900473ffffffffffffffffffffffffffffffffffffffff1681565b60008061029a6102c9565b90506000670de0b6b3a764000084836102b3919061059c565b6102bd919061060d565b90508092505050919050565b60008073694aa1769357215de4fac081bf1f309adc325306905060008173ffffffffffffffffffffffffffffffffffffffff1663feaf968c6040518163ffffffff1660e01b815260040160a060405180830381865afa158015610330573d6000803e3d6000fd5b505050506040513d601f19601f8201168201806040525081019061035491906106cb565b505050915050670de0b6b3a76400008161036e9190610746565b9250505090565b6000819050919050565b61038881610375565b82525050565b60006020820190506103a3600083018461037f565b92915050565b600080fd5b600073ffffffffffffffffffffffffffffffffffffffff82169050919050565b60006103d9826103ae565b9050919050565b6103e9816103ce565b81146103f457600080fd5b50565b600081359050610406816103e0565b92915050565b600060208284031215610422576104216103a9565b5b6000610430848285016103f7565b91505092915050565b61044281610375565b811461044d57600080fd5b50565b60008135905061045f81610439565b92915050565b60006020828403121561047b5761047a6103a9565b5b600061048984828501610450565b91505092915050565b61049b816103ce565b82525050565b60006020820190506104b66000830184610492565b92915050565b600082825260208201905092915050565b7f4469646e27742073656e6420656e6f7567682066756e64730000000000000000600082015250565b60006105036018836104bc565b915061050e826104cd565b602082019050919050565b60006020820190508181036000830152610532816104f6565b9050919050565b7f4e487b7100000000000000000000000000000000000000000000000000000000600052601160045260246000fd5b600061057382610375565b915061057e83610375565b925082820190508082111561059657610595610539565b5b92915050565b60006105a782610375565b91506105b283610375565b92508282026105c081610375565b915082820484148315176105d7576105d6610539565b5b5092915050565b7f4e487b7100000000000000000000000000000000000000000000000000000000600052601260045260246000fd5b600061061882610375565b915061062383610375565b925082610633576106326105de565b5b828204905092915050565b600069ffffffffffffffffffff82169050919050565b61065d8161063e565b811461066857600080fd5b50565b60008151905061067a81610654565b92915050565b6000819050919050565b61069381610680565b811461069e57600080fd5b50565b6000815190506106b08161068a565b92915050565b6000815190506106c581610439565b92915050565b600080600080600060a086880312156106e7576106e66103a9565b5b60006106f58882890161066b565b9550506020610706888289016106a1565b9450506040610717888289016106b6565b9350506060610728888289016106b6565b92505060806107398882890161066b565b9150509295509295909350565b600061075182610680565b915061075c83610680565b925082820261076a81610680565b91507f800000000000000000000000000000000000000000000000000000000000000084146000841216156107a2576107a1610539565b5b82820584148315176107b7576107b6610539565b5b509291505056fea2646970667358221220de0fb9d5c94c9200efbd53f0769a0b547fe9414e523d1fff48338627a524999d64736f6c63430008120033",
					"opcodes": "PUSH1 0x80 PUSH1 0x40 MSTORE PUSH8 0x4563918244F40000 PUSH1 0x0 SSTORE CALLVALUE DUP1 ISZERO PUSH2 0x1C JUMPI PUSH1 0x0 DUP1 REVERT JUMPDEST POP PUSH2 0x7F4 DUP1 PUSH2 0x2C PUSH1 0x0 CODECOPY PUSH1 0x0 RETURN INVALID PUSH1 0x80 PUSH1 0x40 MSTORE PUSH1 0x4 CALLDATASIZE LT PUSH2 0x3F JUMPI PUSH1 0x0 CALLDATALOAD PUSH1 0xE0 SHR DUP1 PUSH4 0x98DE820 EQ PUSH2 0x44 JUMPI DUP1 PUSH4 0xB60D4288 EQ PUSH2 0x6F JUMPI DUP1 PUSH4 0xC1CC410D EQ PUSH2 0x79 JUMPI DUP1 PUSH4 0xDC0D3DFF EQ PUSH2 0xB6 JUMPI JUMPDEST PUSH1 0x0 DUP1 REVERT JUMPDEST CALLVALUE DUP1 ISZERO PUSH2 0x50 JUMPI PUSH1 0x0 DUP1 REVERT JUMPDEST POP PUSH2 0x59 PUSH2 0xF3 JUMP JUMPDEST PUSH1 0x40 MLOAD PUSH2 0x66 SWAP2 SWAP1 PUSH2 0x38E JUMP JUMPDEST PUSH1 0x40 MLOAD DUP1 SWAP2 SUB SWAP1 RETURN JUMPDEST PUSH2 0x77 PUSH2 0xF9 JUMP JUMPDEST STOP JUMPDEST CALLVALUE DUP1 ISZERO PUSH2 0x85 JUMPI PUSH1 0x0 DUP1 REVERT JUMPDEST POP PUSH2 0xA0 PUSH1 0x4 DUP1 CALLDATASIZE SUB DUP2 ADD SWAP1 PUSH2 0x9B SWAP2 SWAP1 PUSH2 0x40C JUMP JUMPDEST PUSH2 0x238 JUMP JUMPDEST PUSH1 0x40 MLOAD PUSH2 0xAD SWAP2 SWAP1 PUSH2 0x38E JUMP JUMPDEST PUSH1 0x40 MLOAD DUP1 SWAP2 SUB SWAP1 RETURN JUMPDEST CALLVALUE DUP1 ISZERO PUSH2 0xC2 JUMPI PUSH1 0x0 DUP1 REVERT JUMPDEST POP PUSH2 0xDD PUSH1 0x4 DUP1 CALLDATASIZE SUB DUP2 ADD SWAP1 PUSH2 0xD8 SWAP2 SWAP1 PUSH2 0x465 JUMP JUMPDEST PUSH2 0x250 JUMP JUMPDEST PUSH1 0x40 MLOAD PUSH2 0xEA SWAP2 SWAP1 PUSH2 0x4A1 JUMP JUMPDEST PUSH1 0x40 MLOAD DUP1 SWAP2 SUB SWAP1 RETURN JUMPDEST PUSH1 0x0 SLOAD DUP2 JUMP JUMPDEST PUSH1 0x0 SLOAD PUSH2 0x105 CALLVALUE PUSH2 0x28F JUMP JUMPDEST GT PUSH2 0x145 JUMPI PUSH1 0x40 MLOAD PUSH32 0x8C379A000000000000000000000000000000000000000000000000000000000 DUP2 MSTORE PUSH1 0x4 ADD PUSH2 0x13C SWAP1 PUSH2 0x519 JUMP JUMPDEST PUSH1 0x40 MLOAD DUP1 SWAP2 SUB SWAP1 REVERT JUMPDEST PUSH1 0x1 CALLER SWAP1 DUP1 PUSH1 0x1 DUP2 SLOAD ADD DUP1 DUP3 SSTORE DUP1 SWAP2 POP POP PUSH1 0x1 SWAP1 SUB SWAP1 PUSH1 0x0 MSTORE PUSH1 0x20 PUSH1 0x0 KECCAK256 ADD PUSH1 0x0 SWAP1 SWAP2 SWAP1 SWAP2 SWAP1 SWAP2 PUSH2 0x100 EXP DUP2 SLOAD DUP2 PUSH20 0xFFFFFFFFFFFFFFFFFFFFFFFFFFFFFFFFFFFFFFFF MUL NOT AND SWAP1 DUP4 PUSH20 0xFFFFFFFFFFFFFFFFFFFFFFFFFFFFFFFFFFFFFFFF AND MUL OR SWAP1 SSTORE POP CALLVALUE PUSH1 0x2 PUSH1 0x0 CALLER PUSH20 0xFFFFFFFFFFFFFFFFFFFFFFFFFFFFFFFFFFFFFFFF AND PUSH20 0xFFFFFFFFFFFFFFFFFFFFFFFFFFFFFFFFFFFFFFFF AND DUP2 MSTORE PUSH1 0x20 ADD SWAP1 DUP2 MSTORE PUSH1 0x20 ADD PUSH1 0x0 KECCAK256 SLOAD PUSH2 0x1F3 SWAP2 SWAP1 PUSH2 0x568 JUMP JUMPDEST PUSH1 0x2 PUSH1 0x0 CALLER PUSH20 0xFFFFFFFFFFFFFFFFFFFFFFFFFFFFFFFFFFFFFFFF AND PUSH20 0xFFFFFFFFFFFFFFFFFFFFFFFFFFFFFFFFFFFFFFFF AND DUP2 MSTORE PUSH1 0x20 ADD SWAP1 DUP2 MSTORE PUSH1 0x20 ADD PUSH1 0x0 KECCAK256 DUP2 SWAP1 SSTORE POP JUMP JUMPDEST PUSH1 0x2 PUSH1 0x20 MSTORE DUP1 PUSH1 0x0 MSTORE PUSH1 0x40 PUSH1 0x0 KECCAK256 PUSH1 0x0 SWAP2 POP SWAP1 POP SLOAD DUP2 JUMP JUMPDEST PUSH1 0x1 DUP2 DUP2 SLOAD DUP2 LT PUSH2 0x260 JUMPI PUSH1 0x0 DUP1 REVERT JUMPDEST SWAP1 PUSH1 0x0 MSTORE PUSH1 0x20 PUSH1 0x0 KECCAK256 ADD PUSH1 0x0 SWAP2 POP SLOAD SWAP1 PUSH2 0x100 EXP SWAP1 DIV PUSH20 0xFFFFFFFFFFFFFFFFFFFFFFFFFFFFFFFFFFFFFFFF AND DUP2 JUMP JUMPDEST PUSH1 0x0 DUP1 PUSH2 0x29A PUSH2 0x2C9 JUMP JUMPDEST SWAP1 POP PUSH1 0x0 PUSH8 0xDE0B6B3A7640000 DUP5 DUP4 PUSH2 0x2B3 SWAP2 SWAP1 PUSH2 0x59C JUMP JUMPDEST PUSH2 0x2BD SWAP2 SWAP1 PUSH2 0x60D JUMP JUMPDEST SWAP1 POP DUP1 SWAP3 POP POP POP SWAP2 SWAP1 POP JUMP JUMPDEST PUSH1 0x0 DUP1 PUSH20 0x694AA1769357215DE4FAC081BF1F309ADC325306 SWAP1 POP PUSH1 0x0 DUP2 PUSH20 0xFFFFFFFFFFFFFFFFFFFFFFFFFFFFFFFFFFFFFFFF AND PUSH4 0xFEAF968C PUSH1 0x40 MLOAD DUP2 PUSH4 0xFFFFFFFF AND PUSH1 0xE0 SHL DUP2 MSTORE PUSH1 0x4 ADD PUSH1 0xA0 PUSH1 0x40 MLOAD DUP1 DUP4 SUB DUP2 DUP7 GAS STATICCALL ISZERO DUP1 ISZERO PUSH2 0x330 JUMPI RETURNDATASIZE PUSH1 0x0 DUP1 RETURNDATACOPY RETURNDATASIZE PUSH1 0x0 REVERT JUMPDEST POP POP POP POP PUSH1 0x40 MLOAD RETURNDATASIZE PUSH1 0x1F NOT PUSH1 0x1F DUP3 ADD AND DUP3 ADD DUP1 PUSH1 0x40 MSTORE POP DUP2 ADD SWAP1 PUSH2 0x354 SWAP2 SWAP1 PUSH2 0x6CB JUMP JUMPDEST POP POP POP SWAP2 POP POP PUSH8 0xDE0B6B3A7640000 DUP2 PUSH2 0x36E SWAP2 SWAP1 PUSH2 0x746 JUMP JUMPDEST SWAP3 POP POP POP SWAP1 JUMP JUMPDEST PUSH1 0x0 DUP2 SWAP1 POP SWAP2 SWAP1 POP JUMP JUMPDEST PUSH2 0x388 DUP2 PUSH2 0x375 JUMP JUMPDEST DUP3 MSTORE POP POP JUMP JUMPDEST PUSH1 0x0 PUSH1 0x20 DUP3 ADD SWAP1 POP PUSH2 0x3A3 PUSH1 0x0 DUP4 ADD DUP5 PUSH2 0x37F JUMP JUMPDEST SWAP3 SWAP2 POP POP JUMP JUMPDEST PUSH1 0x0 DUP1 REVERT JUMPDEST PUSH1 0x0 PUSH20 0xFFFFFFFFFFFFFFFFFFFFFFFFFFFFFFFFFFFFFFFF DUP3 AND SWAP1 POP SWAP2 SWAP1 POP JUMP JUMPDEST PUSH1 0x0 PUSH2 0x3D9 DUP3 PUSH2 0x3AE JUMP JUMPDEST SWAP1 POP SWAP2 SWAP1 POP JUMP JUMPDEST PUSH2 0x3E9 DUP2 PUSH2 0x3CE JUMP JUMPDEST DUP2 EQ PUSH2 0x3F4 JUMPI PUSH1 0x0 DUP1 REVERT JUMPDEST POP JUMP JUMPDEST PUSH1 0x0 DUP2 CALLDATALOAD SWAP1 POP PUSH2 0x406 DUP2 PUSH2 0x3E0 JUMP JUMPDEST SWAP3 SWAP2 POP POP JUMP JUMPDEST PUSH1 0x0 PUSH1 0x20 DUP3 DUP5 SUB SLT ISZERO PUSH2 0x422 JUMPI PUSH2 0x421 PUSH2 0x3A9 JUMP JUMPDEST JUMPDEST PUSH1 0x0 PUSH2 0x430 DUP5 DUP3 DUP6 ADD PUSH2 0x3F7 JUMP JUMPDEST SWAP2 POP POP SWAP3 SWAP2 POP POP JUMP JUMPDEST PUSH2 0x442 DUP2 PUSH2 0x375 JUMP JUMPDEST DUP2 EQ PUSH2 0x44D JUMPI PUSH1 0x0 DUP1 REVERT JUMPDEST POP JUMP JUMPDEST PUSH1 0x0 DUP2 CALLDATALOAD SWAP1 POP PUSH2 0x45F DUP2 PUSH2 0x439 JUMP JUMPDEST SWAP3 SWAP2 POP POP JUMP JUMPDEST PUSH1 0x0 PUSH1 0x20 DUP3 DUP5 SUB SLT ISZERO PUSH2 0x47B JUMPI PUSH2 0x47A PUSH2 0x3A9 JUMP JUMPDEST JUMPDEST PUSH1 0x0 PUSH2 0x489 DUP5 DUP3 DUP6 ADD PUSH2 0x450 JUMP JUMPDEST SWAP2 POP POP SWAP3 SWAP2 POP POP JUMP JUMPDEST PUSH2 0x49B DUP2 PUSH2 0x3CE JUMP JUMPDEST DUP3 MSTORE POP POP JUMP JUMPDEST PUSH1 0x0 PUSH1 0x20 DUP3 ADD SWAP1 POP PUSH2 0x4B6 PUSH1 0x0 DUP4 ADD DUP5 PUSH2 0x492 JUMP JUMPDEST SWAP3 SWAP2 POP POP JUMP JUMPDEST PUSH1 0x0 DUP3 DUP3 MSTORE PUSH1 0x20 DUP3 ADD SWAP1 POP SWAP3 SWAP2 POP POP JUMP JUMPDEST PUSH32 0x4469646E27742073656E6420656E6F7567682066756E64730000000000000000 PUSH1 0x0 DUP3 ADD MSTORE POP JUMP JUMPDEST PUSH1 0x0 PUSH2 0x503 PUSH1 0x18 DUP4 PUSH2 0x4BC JUMP JUMPDEST SWAP2 POP PUSH2 0x50E DUP3 PUSH2 0x4CD JUMP JUMPDEST PUSH1 0x20 DUP3 ADD SWAP1 POP SWAP2 SWAP1 POP JUMP JUMPDEST PUSH1 0x0 PUSH1 0x20 DUP3 ADD SWAP1 POP DUP2 DUP2 SUB PUSH1 0x0 DUP4 ADD MSTORE PUSH2 0x532 DUP2 PUSH2 0x4F6 JUMP JUMPDEST SWAP1 POP SWAP2 SWAP1 POP JUMP JUMPDEST PUSH32 0x4E487B7100000000000000000000000000000000000000000000000000000000 PUSH1 0x0 MSTORE PUSH1 0x11 PUSH1 0x4 MSTORE PUSH1 0x24 PUSH1 0x0 REVERT JUMPDEST PUSH1 0x0 PUSH2 0x573 DUP3 PUSH2 0x375 JUMP JUMPDEST SWAP2 POP PUSH2 0x57E DUP4 PUSH2 0x375 JUMP JUMPDEST SWAP3 POP DUP3 DUP3 ADD SWAP1 POP DUP1 DUP3 GT ISZERO PUSH2 0x596 JUMPI PUSH2 0x595 PUSH2 0x539 JUMP JUMPDEST JUMPDEST SWAP3 SWAP2 POP POP JUMP JUMPDEST PUSH1 0x0 PUSH2 0x5A7 DUP3 PUSH2 0x375 JUMP JUMPDEST SWAP2 POP PUSH2 0x5B2 DUP4 PUSH2 0x375 JUMP JUMPDEST SWAP3 POP DUP3 DUP3 MUL PUSH2 0x5C0 DUP2 PUSH2 0x375 JUMP JUMPDEST SWAP2 POP DUP3 DUP3 DIV DUP5 EQ DUP4 ISZERO OR PUSH2 0x5D7 JUMPI PUSH2 0x5D6 PUSH2 0x539 JUMP JUMPDEST JUMPDEST POP SWAP3 SWAP2 POP POP JUMP JUMPDEST PUSH32 0x4E487B7100000000000000000000000000000000000000000000000000000000 PUSH1 0x0 MSTORE PUSH1 0x12 PUSH1 0x4 MSTORE PUSH1 0x24 PUSH1 0x0 REVERT JUMPDEST PUSH1 0x0 PUSH2 0x618 DUP3 PUSH2 0x375 JUMP JUMPDEST SWAP2 POP PUSH2 0x623 DUP4 PUSH2 0x375 JUMP JUMPDEST SWAP3 POP DUP3 PUSH2 0x633 JUMPI PUSH2 0x632 PUSH2 0x5DE JUMP JUMPDEST JUMPDEST DUP3 DUP3 DIV SWAP1 POP SWAP3 SWAP2 POP POP JUMP JUMPDEST PUSH1 0x0 PUSH10 0xFFFFFFFFFFFFFFFFFFFF DUP3 AND SWAP1 POP SWAP2 SWAP1 POP JUMP JUMPDEST PUSH2 0x65D DUP2 PUSH2 0x63E JUMP JUMPDEST DUP2 EQ PUSH2 0x668 JUMPI PUSH1 0x0 DUP1 REVERT JUMPDEST POP JUMP JUMPDEST PUSH1 0x0 DUP2 MLOAD SWAP1 POP PUSH2 0x67A DUP2 PUSH2 0x654 JUMP JUMPDEST SWAP3 SWAP2 POP POP JUMP JUMPDEST PUSH1 0x0 DUP2 SWAP1 POP SWAP2 SWAP1 POP JUMP JUMPDEST PUSH2 0x693 DUP2 PUSH2 0x680 JUMP JUMPDEST DUP2 EQ PUSH2 0x69E JUMPI PUSH1 0x0 DUP1 REVERT JUMPDEST POP JUMP JUMPDEST PUSH1 0x0 DUP2 MLOAD SWAP1 POP PUSH2 0x6B0 DUP2 PUSH2 0x68A JUMP JUMPDEST SWAP3 SWAP2 POP POP JUMP JUMPDEST PUSH1 0x0 DUP2 MLOAD SWAP1 POP PUSH2 0x6C5 DUP2 PUSH2 0x439 JUMP JUMPDEST SWAP3 SWAP2 POP POP JUMP JUMPDEST PUSH1 0x0 DUP1 PUSH1 0x0 DUP1 PUSH1 0x0 PUSH1 0xA0 DUP7 DUP9 SUB SLT ISZERO PUSH2 0x6E7 JUMPI PUSH2 0x6E6 PUSH2 0x3A9 JUMP JUMPDEST JUMPDEST PUSH1 0x0 PUSH2 0x6F5 DUP9 DUP3 DUP10 ADD PUSH2 0x66B JUMP JUMPDEST SWAP6 POP POP PUSH1 0x20 PUSH2 0x706 DUP9 DUP3 DUP10 ADD PUSH2 0x6A1 JUMP JUMPDEST SWAP5 POP POP PUSH1 0x40 PUSH2 0x717 DUP9 DUP3 DUP10 ADD PUSH2 0x6B6 JUMP JUMPDEST SWAP4 POP POP PUSH1 0x60 PUSH2 0x728 DUP9 DUP3 DUP10 ADD PUSH2 0x6B6 JUMP JUMPDEST SWAP3 POP POP PUSH1 0x80 PUSH2 0x739 DUP9 DUP3 DUP10 ADD PUSH2 0x66B JUMP JUMPDEST SWAP2 POP POP SWAP3 SWAP6 POP SWAP3 SWAP6 SWAP1 SWAP4 POP JUMP JUMPDEST PUSH1 0x0 PUSH2 0x751 DUP3 PUSH2 0x680 JUMP JUMPDEST SWAP2 POP PUSH2 0x75C DUP4 PUSH2 0x680 JUMP JUMPDEST SWAP3 POP DUP3 DUP3 MUL PUSH2 0x76A DUP2 PUSH2 0x680 JUMP JUMPDEST SWAP2 POP PUSH32 0x8000000000000000000000000000000000000000000000000000000000000000 DUP5 EQ PUSH1 0x0 DUP5 SLT AND ISZERO PUSH2 0x7A2 JUMPI PUSH2 0x7A1 PUSH2 0x539 JUMP JUMPDEST JUMPDEST DUP3 DUP3 SDIV DUP5 EQ DUP4 ISZERO OR PUSH2 0x7B7 JUMPI PUSH2 0x7B6 PUSH2 0x539 JUMP JUMPDEST JUMPDEST POP SWAP3 SWAP2 POP POP JUMP INVALID LOG2 PUSH5 0x6970667358 0x22 SLT KECCAK256 0xDE 0xF 0xB9 0xD5 0xC9 0x4C SWAP3 STOP 0xEF 0xBD MSTORE8 CREATE PUSH23 0x9A0B547FE9414E523D1FFF48338627A524999D64736F6C PUSH4 0x43000812 STOP CALLER "
				},
				"gasEstimates": {
					"creation": {
						"codeDepositCost": "407200",
						"executionCost": "22549",
						"totalCost": "429749"
					},
					"external": {
						"addressToAMountFunded(address)": "2836",
						"fund()": "infinite",
						"funders(uint256)": "5000",
						"minimumUsd()": "2407"
					}
				},
				"methodIdentifiers": {
					"addressToAMountFunded(address)": "c1cc410d",
					"fund()": "b60d4288",
					"funders(uint256)": "dc0d3dff",
					"minimumUsd()": "098de820"
				}
			},
			"storageLayout": {
				"storage": [
					{
						"astId": 60,
						"contract": "FundMe/FundMe.sol:FundMe",
						"label": "minimumUsd",
						"offset": 0,
						"slot": "0",
						"type": "t_uint256"
					},
					{
						"astId": 63,
						"contract": "FundMe/FundMe.sol:FundMe",
						"label": "funders",
						"offset": 0,
						"slot": "1",
						"type": "t_array(t_address)dyn_storage"
					},
					{
						"astId": 67,
						"contract": "FundMe/FundMe.sol:FundMe",
						"label": "addressToAMountFunded",
						"offset": 0,
						"slot": "2",
						"type": "t_mapping(t_address,t_uint256)"
					}
				],
				"types": {
					"t_address": {
						"encoding": "inplace",
						"label": "address",
						"numberOfBytes": "20"
					},
					"t_array(t_address)dyn_storage": {
						"base": "t_address",
						"encoding": "dynamic_array",
						"label": "address[]",
						"numberOfBytes": "32"
					},
					"t_mapping(t_address,t_uint256)": {
						"encoding": "mapping",
						"key": "t_address",
						"label": "mapping(address => uint256)",
						"numberOfBytes": "32",
						"value": "t_uint256"
					},
					"t_uint256": {
						"encoding": "inplace",
						"label": "uint256",
						"numberOfBytes": "32"
					}
				}
			},
			"userdoc": {
				"kind": "user",
				"methods": {},
				"version": 1
			}
		}
	}
}