{
  "contractName": "Faucet",
  "abi": [
    {
      "inputs": [],
      "name": "numOfFunders",
      "outputs": [
        {
          "internalType": "uint256",
          "name": "",
          "type": "uint256"
        }
      ],
      "stateMutability": "view",
      "type": "function",
      "constant": true
    },
    {
      "inputs": [],
      "name": "owner",
      "outputs": [
        {
          "internalType": "address",
          "name": "",
          "type": "address"
        }
      ],
      "stateMutability": "view",
      "type": "function",
      "constant": true
    },
    {
      "stateMutability": "payable",
      "type": "receive",
      "payable": true
    },
    {
      "inputs": [],
      "name": "addFunds",
      "outputs": [],
      "stateMutability": "payable",
      "type": "function",
      "payable": true
    },
    {
      "inputs": [
        {
          "internalType": "uint256",
          "name": "withdrawAmt",
          "type": "uint256"
        }
      ],
      "name": "withdraw",
      "outputs": [],
      "stateMutability": "nonpayable",
      "type": "function"
    },
    {
      "inputs": [],
      "name": "getAllFunders",
      "outputs": [
        {
          "internalType": "address[]",
          "name": "",
          "type": "address[]"
        }
      ],
      "stateMutability": "view",
      "type": "function",
      "constant": true
    },
    {
      "inputs": [
        {
          "internalType": "uint256",
          "name": "index",
          "type": "uint256"
        }
      ],
      "name": "getFunderAtIndex",
      "outputs": [
        {
          "internalType": "address",
          "name": "",
          "type": "address"
        }
      ],
      "stateMutability": "view",
      "type": "function",
      "constant": true
    }
  ],
  "bytecode": "0x608060405234801561001057600080fd5b50336000806101000a81548173ffffffffffffffffffffffffffffffffffffffff021916908373ffffffffffffffffffffffffffffffffffffffff160217905550610874806100606000396000f3fe6080604052600436106100595760003560e01c80632e1a7d4d146100655780636fbbb55d1461008e5780638da5cb5b146100b9578063a26759cb146100e4578063af7f2c9b146100ee578063c218deca1461011957610060565b3661006057005b600080fd5b34801561007157600080fd5b5061008c600480360381019061008791906104ed565b610156565b005b34801561009a57600080fd5b506100a36101ed565b6040516100b0919061060a565b60405180910390f35b3480156100c557600080fd5b506100ce6102e7565b6040516100db919061063b565b60405180910390f35b6100ec61030b565b005b3480156100fa57600080fd5b5061010361042b565b6040516101109190610665565b60405180910390f35b34801561012557600080fd5b50610140600480360381019061013b91906104ed565b610431565b60405161014d919061063b565b60405180910390f35b8067016345785d8a00008111156101a2576040517f08c379a0000000000000000000000000000000000000000000000000000000008152600401610199906106dd565b60405180910390fd5b3373ffffffffffffffffffffffffffffffffffffffff166108fc839081150290604051600060405180830381858888f193505050501580156101e8573d6000803e3d6000fd5b505050565b6060600060015467ffffffffffffffff81111561020d5761020c6106fd565b5b60405190808252806020026020018201604052801561023b5781602001602082028036833780820191505090505b50905060005b6001548110156102df576003600082815260200190815260200160002060009054906101000a900473ffffffffffffffffffffffffffffffffffffffff168282815181106102925761029161072c565b5b602002602001019073ffffffffffffffffffffffffffffffffffffffff16908173ffffffffffffffffffffffffffffffffffffffff168152505080806102d79061078a565b915050610241565b508091505090565b60008054906101000a900473ffffffffffffffffffffffffffffffffffffffff1681565b6000339050600260008273ffffffffffffffffffffffffffffffffffffffff1673ffffffffffffffffffffffffffffffffffffffff16815260200190815260200160002060009054906101000a900460ff16610428576000600160008154809291906103769061078a565b9190505590506001600260008473ffffffffffffffffffffffffffffffffffffffff1673ffffffffffffffffffffffffffffffffffffffff16815260200190815260200160002060006101000a81548160ff021916908315150217905550816003600083815260200190815260200160002060006101000a81548173ffffffffffffffffffffffffffffffffffffffff021916908373ffffffffffffffffffffffffffffffffffffffff160217905550505b50565b60015481565b60006001548210610477576040517f08c379a000000000000000000000000000000000000000000000000000000000815260040161046e9061081e565b60405180910390fd5b6003600083815260200190815260200160002060009054906101000a900473ffffffffffffffffffffffffffffffffffffffff169050919050565b600080fd5b6000819050919050565b6104ca816104b7565b81146104d557600080fd5b50565b6000813590506104e7816104c1565b92915050565b600060208284031215610503576105026104b2565b5b6000610511848285016104d8565b91505092915050565b600081519050919050565b600082825260208201905092915050565b6000819050602082019050919050565b600073ffffffffffffffffffffffffffffffffffffffff82169050919050565b600061057182610546565b9050919050565b61058181610566565b82525050565b60006105938383610578565b60208301905092915050565b6000602082019050919050565b60006105b78261051a565b6105c18185610525565b93506105cc83610536565b8060005b838110156105fd5781516105e48882610587565b97506105ef8361059f565b9250506001810190506105d0565b5085935050505092915050565b6000602082019050818103600083015261062481846105ac565b905092915050565b61063581610566565b82525050565b6000602082019050610650600083018461062c565b92915050565b61065f816104b7565b82525050565b600060208201905061067a6000830184610656565b92915050565b600082825260208201905092915050565b7f43616e6e6f742077697468206d6f7265207468616e20302e3120657468657200600082015250565b60006106c7601f83610680565b91506106d282610691565b602082019050919050565b600060208201905081810360008301526106f6816106ba565b9050919050565b7f4e487b7100000000000000000000000000000000000000000000000000000000600052604160045260246000fd5b7f4e487b7100000000000000000000000000000000000000000000000000000000600052603260045260246000fd5b7f4e487b7100000000000000000000000000000000000000000000000000000000600052601160045260246000fd5b6000610795826104b7565b91507fffffffffffffffffffffffffffffffffffffffffffffffffffffffffffffffff82036107c7576107c661075b565b5b600182019050919050565b7f496e646578206f7574206f662072616e67650000000000000000000000000000600082015250565b6000610808601283610680565b9150610813826107d2565b602082019050919050565b60006020820190508181036000830152610837816107fb565b905091905056fea264697066735822122078a76acab6d8387d35c249d5e0d85cd396dc40adfd66a6686db4b6e49761527064736f6c63430008130033",
  "immutableReferences": {},
  "source": "// SPDX-License-Identifier: MIT\r\npragma solidity ^0.8.19;\r\n\r\nimport \"./Owned.sol\";\r\nimport \"./IFaucet.sol\";\r\n\r\ncontract Faucet is Owned, IFaucet{\r\n\r\n    uint public numOfFunders;\r\n    // address public owner;\r\n\r\n\r\n    mapping(address => bool) private funders;\r\n    mapping(uint => address) private lutFunders;\r\n\r\n    modifier limitWithdraw(uint withdrawAmt) {\r\n        require(\r\n            withdrawAmt <= 100000000000000000,\r\n            \"Cannot with more than 0.1 ether\"\r\n        );\r\n        _;\r\n    }\r\n\r\n    receive() external payable {}\r\n\r\n    function addFunds() override external payable {\r\n        \r\n        address funder = msg.sender;\r\n\r\n         if (!funders[funder]) {\r\n            uint index = numOfFunders++;\r\n            funders[funder] = true;\r\n            lutFunders[index] = funder;\r\n        }\r\n    }\r\n\r\n    function withdraw(uint withdrawAmt) override external limitWithdraw(withdrawAmt){\r\n        \r\n        payable(msg.sender).transfer(withdrawAmt);\r\n    }\r\n\r\n    function getAllFunders() external view returns (address[] memory) {\r\n        address[] memory _funders = new address[](numOfFunders);\r\n\r\n        for(uint i = 0; i < numOfFunders; i++){\r\n            _funders[i] = lutFunders[i];\r\n        }\r\n        \r\n        return _funders;\r\n    }\r\n\r\n    function getFunderAtIndex(uint index) external view returns(address) {\r\n        require(index < numOfFunders, \"Index out of range\");\r\n        return lutFunders[index];\r\n    }\r\n}\r\n",
  "sourcePath": "C:\\Users\\arnol\\blockchain\\faucet\\contracts\\Faucet.sol",
  "compiler": {
    "name": "solc",
    "version": "0.8.19+commit.7dd6d404.Emscripten.clang"
  },
  "schemaVersion": "3.4.16",
  "updatedAt": "2024-06-04T12:46:53.667Z",
  "networkType": "ethereum",
  "devdoc": {
    "kind": "dev",
    "methods": {},
    "version": 1
  },
  "userdoc": {
    "kind": "user",
    "methods": {},
    "version": 1
  }
}